{
  "contractName": "NftMarket",
  "abi": [
    {
      "inputs": [],
      "stateMutability": "nonpayable",
      "type": "constructor"
    },
    {
      "anonymous": false,
      "inputs": [
        {
          "indexed": true,
          "internalType": "address",
          "name": "owner",
          "type": "address"
        },
        {
          "indexed": true,
          "internalType": "address",
          "name": "approved",
          "type": "address"
        },
        {
          "indexed": true,
          "internalType": "uint256",
          "name": "tokenId",
          "type": "uint256"
        }
      ],
      "name": "Approval",
      "type": "event"
    },
    {
      "anonymous": false,
      "inputs": [
        {
          "indexed": true,
          "internalType": "address",
          "name": "owner",
          "type": "address"
        },
        {
          "indexed": true,
          "internalType": "address",
          "name": "operator",
          "type": "address"
        },
        {
          "indexed": false,
          "internalType": "bool",
          "name": "approved",
          "type": "bool"
        }
      ],
      "name": "ApprovalForAll",
      "type": "event"
    },
    {
      "anonymous": false,
      "inputs": [
        {
          "indexed": false,
          "internalType": "uint256",
          "name": "tokenId",
          "type": "uint256"
        },
        {
          "indexed": false,
          "internalType": "uint256",
          "name": "price",
          "type": "uint256"
        },
        {
          "indexed": false,
          "internalType": "address",
          "name": "creator",
          "type": "address"
        },
        {
          "indexed": false,
          "internalType": "bool",
          "name": "isListed",
          "type": "bool"
        }
      ],
      "name": "NftItemCreated",
      "type": "event"
    },
    {
      "anonymous": false,
      "inputs": [
        {
          "indexed": true,
          "internalType": "address",
          "name": "previousOwner",
          "type": "address"
        },
        {
          "indexed": true,
          "internalType": "address",
          "name": "newOwner",
          "type": "address"
        }
      ],
      "name": "OwnershipTransferred",
      "type": "event"
    },
    {
      "anonymous": false,
      "inputs": [
        {
          "indexed": true,
          "internalType": "address",
          "name": "from",
          "type": "address"
        },
        {
          "indexed": true,
          "internalType": "address",
          "name": "to",
          "type": "address"
        },
        {
          "indexed": true,
          "internalType": "uint256",
          "name": "tokenId",
          "type": "uint256"
        }
      ],
      "name": "Transfer",
      "type": "event"
    },
    {
      "inputs": [
        {
          "internalType": "address",
          "name": "to",
          "type": "address"
        },
        {
          "internalType": "uint256",
          "name": "tokenId",
          "type": "uint256"
        }
      ],
      "name": "approve",
      "outputs": [],
      "stateMutability": "nonpayable",
      "type": "function"
    },
    {
      "inputs": [
        {
          "internalType": "address",
          "name": "owner",
          "type": "address"
        }
      ],
      "name": "balanceOf",
      "outputs": [
        {
          "internalType": "uint256",
          "name": "",
          "type": "uint256"
        }
      ],
      "stateMutability": "view",
      "type": "function",
      "constant": true
    },
    {
      "inputs": [
        {
          "internalType": "uint256",
          "name": "tokenId",
          "type": "uint256"
        }
      ],
      "name": "getApproved",
      "outputs": [
        {
          "internalType": "address",
          "name": "",
          "type": "address"
        }
      ],
      "stateMutability": "view",
      "type": "function",
      "constant": true
    },
    {
      "inputs": [
        {
          "internalType": "address",
          "name": "owner",
          "type": "address"
        },
        {
          "internalType": "address",
          "name": "operator",
          "type": "address"
        }
      ],
      "name": "isApprovedForAll",
      "outputs": [
        {
          "internalType": "bool",
          "name": "",
          "type": "bool"
        }
      ],
      "stateMutability": "view",
      "type": "function",
      "constant": true
    },
    {
      "inputs": [],
      "name": "listingPrice",
      "outputs": [
        {
          "internalType": "uint256",
          "name": "",
          "type": "uint256"
        }
      ],
      "stateMutability": "view",
      "type": "function",
      "constant": true
    },
    {
      "inputs": [],
      "name": "name",
      "outputs": [
        {
          "internalType": "string",
          "name": "",
          "type": "string"
        }
      ],
      "stateMutability": "view",
      "type": "function",
      "constant": true
    },
    {
      "inputs": [],
      "name": "owner",
      "outputs": [
        {
          "internalType": "address",
          "name": "",
          "type": "address"
        }
      ],
      "stateMutability": "view",
      "type": "function",
      "constant": true
    },
    {
      "inputs": [
        {
          "internalType": "uint256",
          "name": "tokenId",
          "type": "uint256"
        }
      ],
      "name": "ownerOf",
      "outputs": [
        {
          "internalType": "address",
          "name": "",
          "type": "address"
        }
      ],
      "stateMutability": "view",
      "type": "function",
      "constant": true
    },
    {
      "inputs": [],
      "name": "renounceOwnership",
      "outputs": [],
      "stateMutability": "nonpayable",
      "type": "function"
    },
    {
      "inputs": [
        {
          "internalType": "address",
          "name": "from",
          "type": "address"
        },
        {
          "internalType": "address",
          "name": "to",
          "type": "address"
        },
        {
          "internalType": "uint256",
          "name": "tokenId",
          "type": "uint256"
        }
      ],
      "name": "safeTransferFrom",
      "outputs": [],
      "stateMutability": "nonpayable",
      "type": "function"
    },
    {
      "inputs": [
        {
          "internalType": "address",
          "name": "from",
          "type": "address"
        },
        {
          "internalType": "address",
          "name": "to",
          "type": "address"
        },
        {
          "internalType": "uint256",
          "name": "tokenId",
          "type": "uint256"
        },
        {
          "internalType": "bytes",
          "name": "data",
          "type": "bytes"
        }
      ],
      "name": "safeTransferFrom",
      "outputs": [],
      "stateMutability": "nonpayable",
      "type": "function"
    },
    {
      "inputs": [
        {
          "internalType": "address",
          "name": "operator",
          "type": "address"
        },
        {
          "internalType": "bool",
          "name": "approved",
          "type": "bool"
        }
      ],
      "name": "setApprovalForAll",
      "outputs": [],
      "stateMutability": "nonpayable",
      "type": "function"
    },
    {
      "inputs": [
        {
          "internalType": "bytes4",
          "name": "interfaceId",
          "type": "bytes4"
        }
      ],
      "name": "supportsInterface",
      "outputs": [
        {
          "internalType": "bool",
          "name": "",
          "type": "bool"
        }
      ],
      "stateMutability": "view",
      "type": "function",
      "constant": true
    },
    {
      "inputs": [],
      "name": "symbol",
      "outputs": [
        {
          "internalType": "string",
          "name": "",
          "type": "string"
        }
      ],
      "stateMutability": "view",
      "type": "function",
      "constant": true
    },
    {
      "inputs": [
        {
          "internalType": "uint256",
          "name": "tokenId",
          "type": "uint256"
        }
      ],
      "name": "tokenURI",
      "outputs": [
        {
          "internalType": "string",
          "name": "",
          "type": "string"
        }
      ],
      "stateMutability": "view",
      "type": "function",
      "constant": true
    },
    {
      "inputs": [
        {
          "internalType": "address",
          "name": "from",
          "type": "address"
        },
        {
          "internalType": "address",
          "name": "to",
          "type": "address"
        },
        {
          "internalType": "uint256",
          "name": "tokenId",
          "type": "uint256"
        }
      ],
      "name": "transferFrom",
      "outputs": [],
      "stateMutability": "nonpayable",
      "type": "function"
    },
    {
      "inputs": [
        {
          "internalType": "address",
          "name": "newOwner",
          "type": "address"
        }
      ],
      "name": "transferOwnership",
      "outputs": [],
      "stateMutability": "nonpayable",
      "type": "function"
    },
    {
      "inputs": [
        {
          "internalType": "uint256",
          "name": "newPrice",
          "type": "uint256"
        }
      ],
      "name": "setListingPrice",
      "outputs": [],
      "stateMutability": "nonpayable",
      "type": "function"
    },
    {
      "inputs": [
        {
          "internalType": "uint256",
          "name": "tokenId",
          "type": "uint256"
        }
      ],
      "name": "getNftItem",
      "outputs": [
        {
          "components": [
            {
              "internalType": "uint256",
              "name": "tokenId",
              "type": "uint256"
            },
            {
              "internalType": "uint256",
              "name": "price",
              "type": "uint256"
            },
            {
              "internalType": "address",
              "name": "creator",
              "type": "address"
            },
            {
              "internalType": "bool",
              "name": "isListed",
              "type": "bool"
            }
          ],
          "internalType": "struct NftMarket.NftItem",
          "name": "",
          "type": "tuple"
        }
      ],
      "stateMutability": "view",
      "type": "function",
      "constant": true
    },
    {
      "inputs": [],
      "name": "listedItemsCount",
      "outputs": [
        {
          "internalType": "uint256",
          "name": "",
          "type": "uint256"
        }
      ],
      "stateMutability": "view",
      "type": "function",
      "constant": true
    },
    {
      "inputs": [
        {
          "internalType": "string",
          "name": "tokenURI",
          "type": "string"
        }
      ],
      "name": "tokenURIExists",
      "outputs": [
        {
          "internalType": "bool",
          "name": "",
          "type": "bool"
        }
      ],
      "stateMutability": "view",
      "type": "function",
      "constant": true
    },
    {
      "inputs": [],
      "name": "totalSupply",
      "outputs": [
        {
          "internalType": "uint256",
          "name": "",
          "type": "uint256"
        }
      ],
      "stateMutability": "view",
      "type": "function",
      "constant": true
    },
    {
      "inputs": [
        {
          "internalType": "uint256",
          "name": "index",
          "type": "uint256"
        }
      ],
      "name": "tokenByIndex",
      "outputs": [
        {
          "internalType": "uint256",
          "name": "",
          "type": "uint256"
        }
      ],
      "stateMutability": "view",
      "type": "function",
      "constant": true
    },
    {
      "inputs": [
        {
          "internalType": "address",
          "name": "owner",
          "type": "address"
        },
        {
          "internalType": "uint256",
          "name": "index",
          "type": "uint256"
        }
      ],
      "name": "tokenOfOwnerByIndex",
      "outputs": [
        {
          "internalType": "uint256",
          "name": "",
          "type": "uint256"
        }
      ],
      "stateMutability": "view",
      "type": "function",
      "constant": true
    },
    {
      "inputs": [],
      "name": "getAllNftsOnSale",
      "outputs": [
        {
          "components": [
            {
              "internalType": "uint256",
              "name": "tokenId",
              "type": "uint256"
            },
            {
              "internalType": "uint256",
              "name": "price",
              "type": "uint256"
            },
            {
              "internalType": "address",
              "name": "creator",
              "type": "address"
            },
            {
              "internalType": "bool",
              "name": "isListed",
              "type": "bool"
            }
          ],
          "internalType": "struct NftMarket.NftItem[]",
          "name": "",
          "type": "tuple[]"
        }
      ],
      "stateMutability": "view",
      "type": "function",
      "constant": true
    },
    {
      "inputs": [],
      "name": "getOwnedNfts",
      "outputs": [
        {
          "components": [
            {
              "internalType": "uint256",
              "name": "tokenId",
              "type": "uint256"
            },
            {
              "internalType": "uint256",
              "name": "price",
              "type": "uint256"
            },
            {
              "internalType": "address",
              "name": "creator",
              "type": "address"
            },
            {
              "internalType": "bool",
              "name": "isListed",
              "type": "bool"
            }
          ],
          "internalType": "struct NftMarket.NftItem[]",
          "name": "",
          "type": "tuple[]"
        }
      ],
      "stateMutability": "view",
      "type": "function",
      "constant": true
    },
    {
      "inputs": [
        {
          "internalType": "string",
          "name": "tokenURI",
          "type": "string"
        },
        {
          "internalType": "uint256",
          "name": "price",
          "type": "uint256"
        }
      ],
      "name": "mintToken",
      "outputs": [
        {
          "internalType": "uint256",
          "name": "",
          "type": "uint256"
        }
      ],
      "stateMutability": "payable",
      "type": "function",
      "payable": true
    },
    {
      "inputs": [
        {
          "internalType": "uint256",
          "name": "tokenId",
          "type": "uint256"
        },
        {
          "internalType": "uint256",
          "name": "newPrice",
          "type": "uint256"
        }
      ],
      "name": "placeNftOnSale",
      "outputs": [],
      "stateMutability": "payable",
      "type": "function",
      "payable": true
    },
    {
      "inputs": [
        {
          "internalType": "uint256",
          "name": "tokenId",
          "type": "uint256"
        }
      ],
      "name": "buyNft",
      "outputs": [],
      "stateMutability": "payable",
      "type": "function",
      "payable": true
    }
  ],
  "bytecode": "0x60806040526658d15e176280006008553480156200001c57600080fd5b506040518060400160405280600c81526020017f4372656174757265734e465400000000000000000000000000000000000000008152506040518060400160405280600481526020017f434e46540000000000000000000000000000000000000000000000000000000081525081600090816200009a91906200041d565b508060019081620000ac91906200041d565b505050620000cf620000c3620000d560201b60201c565b620000dd60201b60201c565b62000504565b600033905090565b6000600760009054906101000a900473ffffffffffffffffffffffffffffffffffffffff16905081600760006101000a81548173ffffffffffffffffffffffffffffffffffffffff021916908373ffffffffffffffffffffffffffffffffffffffff1602179055508173ffffffffffffffffffffffffffffffffffffffff168173ffffffffffffffffffffffffffffffffffffffff167f8be0079c531659141344cd1fd0a4f28419497f9722a3daafe3b4186f6b6457e060405160405180910390a35050565b600081519050919050565b7f4e487b7100000000000000000000000000000000000000000000000000000000600052604160045260246000fd5b7f4e487b7100000000000000000000000000000000000000000000000000000000600052602260045260246000fd5b600060028204905060018216806200022557607f821691505b6020821081036200023b576200023a620001dd565b5b50919050565b60008190508160005260206000209050919050565b60006020601f8301049050919050565b600082821b905092915050565b600060088302620002a57fffffffffffffffffffffffffffffffffffffffffffffffffffffffffffffffff8262000266565b620002b1868362000266565b95508019841693508086168417925050509392505050565b6000819050919050565b6000819050919050565b6000620002fe620002f8620002f284620002c9565b620002d3565b620002c9565b9050919050565b6000819050919050565b6200031a83620002dd565b62000332620003298262000305565b84845462000273565b825550505050565b600090565b620003496200033a565b620003568184846200030f565b505050565b5b818110156200037e57620003726000826200033f565b6001810190506200035c565b5050565b601f821115620003cd57620003978162000241565b620003a28462000256565b81016020851015620003b2578190505b620003ca620003c18562000256565b8301826200035b565b50505b505050565b600082821c905092915050565b6000620003f260001984600802620003d2565b1980831691505092915050565b60006200040d8383620003df565b9150826002028217905092915050565b6200042882620001a3565b67ffffffffffffffff811115620004445762000443620001ae565b5b6200045082546200020c565b6200045d82828562000382565b600060209050601f83116001811462000495576000841562000480578287015190505b6200048c8582620003ff565b865550620004fc565b601f198416620004a58662000241565b60005b82811015620004cf57848901518255600182019150602085019450602081019050620004a8565b86831015620004ef5784890151620004eb601f891682620003df565b8355505b6001600288020188555050505b505050505050565b6147fa80620005146000396000f3fe6080604052600436106101c25760003560e01c80636f1a0af5116100f7578063a22cb46511610095578063c87b56dd11610064578063c87b56dd14610651578063ccb4918d1461068e578063e985e9c5146106b9578063f2fde38b146106f6576101c2565b8063a22cb465146105a4578063b88d4fde146105cd578063c046372c146105f6578063c78f19f914610626576101c2565b8063715018a6116100d1578063715018a61461050e5780637c726b69146105255780638da5cb5b1461054e57806395d89b4114610579576101c2565b80636f1a0af51461046957806370a08231146104a657806370cbcb43146104e3576101c2565b8063243adbdd1161016457806342842e0e1161013e57806342842e0e1461038957806343d32ae7146103b25780634f6ccce7146103ef5780636352211e1461042c576101c2565b8063243adbdd146103055780632f745c591461032157806336b536be1461035e576101c2565b8063095ea7b3116101a0578063095ea7b31461026c57806318160ddd1461029557806321f422e5146102c057806323b872dd146102dc576101c2565b806301ffc9a7146101c757806306fdde0314610204578063081812fc1461022f575b600080fd5b3480156101d357600080fd5b506101ee60048036038101906101e99190612d87565b61071f565b6040516101fb9190612dcf565b60405180910390f35b34801561021057600080fd5b50610219610801565b6040516102269190612e83565b60405180910390f35b34801561023b57600080fd5b5061025660048036038101906102519190612edb565b610893565b6040516102639190612f49565b60405180910390f35b34801561027857600080fd5b50610293600480360381019061028e9190612f90565b6108d9565b005b3480156102a157600080fd5b506102aa6109f0565b6040516102b79190612fdf565b60405180910390f35b6102da60048036038101906102d59190612ffa565b6109fd565b005b3480156102e857600080fd5b5061030360048036038101906102fe919061303a565b610b79565b005b61031f600480360381019061031a9190612edb565b610bd9565b005b34801561032d57600080fd5b5061034860048036038101906103439190612f90565b610d41565b6040516103559190612fdf565b60405180910390f35b34801561036a57600080fd5b50610373610de6565b60405161038091906131be565b60405180910390f35b34801561039557600080fd5b506103b060048036038101906103ab919061303a565b610f80565b005b3480156103be57600080fd5b506103d960048036038101906103d49190613315565b610fa0565b6040516103e69190612dcf565b60405180910390f35b3480156103fb57600080fd5b5061041660048036038101906104119190612edb565b610fdc565b6040516104239190612fdf565b60405180910390f35b34801561043857600080fd5b50610453600480360381019061044e9190612edb565b61104d565b6040516104609190612f49565b60405180910390f35b34801561047557600080fd5b50610490600480360381019061048b9190612edb565b6110fe565b60405161049d91906133b3565b60405180910390f35b3480156104b257600080fd5b506104cd60048036038101906104c891906133ce565b6111b0565b6040516104da9190612fdf565b60405180910390f35b3480156104ef57600080fd5b506104f8611267565b60405161050591906131be565b60405180910390f35b34801561051a57600080fd5b506105236113cb565b005b34801561053157600080fd5b5061054c60048036038101906105479190612edb565b6113df565b005b34801561055a57600080fd5b50610563611434565b6040516105709190612f49565b60405180910390f35b34801561058557600080fd5b5061058e61145e565b60405161059b9190612e83565b60405180910390f35b3480156105b057600080fd5b506105cb60048036038101906105c69190613427565b6114f0565b005b3480156105d957600080fd5b506105f460048036038101906105ef9190613508565b611506565b005b610610600480360381019061060b919061358b565b611568565b60405161061d9190612fdf565b60405180910390f35b34801561063257600080fd5b5061063b611678565b6040516106489190612fdf565b60405180910390f35b34801561065d57600080fd5b5061067860048036038101906106739190612edb565b61167e565b6040516106859190612e83565b60405180910390f35b34801561069a57600080fd5b506106a3611790565b6040516106b09190612fdf565b60405180910390f35b3480156106c557600080fd5b506106e060048036038101906106db91906135e7565b6117a1565b6040516106ed9190612dcf565b60405180910390f35b34801561070257600080fd5b5061071d600480360381019061071891906133ce565b611835565b005b60007f80ac58cd000000000000000000000000000000000000000000000000000000007bffffffffffffffffffffffffffffffffffffffffffffffffffffffff1916827bffffffffffffffffffffffffffffffffffffffffffffffffffffffff191614806107ea57507f5b5e139f000000000000000000000000000000000000000000000000000000007bffffffffffffffffffffffffffffffffffffffffffffffffffffffff1916827bffffffffffffffffffffffffffffffffffffffffffffffffffffffff1916145b806107fa57506107f9826118b8565b5b9050919050565b60606000805461081090613656565b80601f016020809104026020016040519081016040528092919081815260200182805461083c90613656565b80156108895780601f1061085e57610100808354040283529160200191610889565b820191906000526020600020905b81548152906001019060200180831161086c57829003601f168201915b5050505050905090565b600061089e82611922565b6004600083815260200190815260200160002060009054906101000a900473ffffffffffffffffffffffffffffffffffffffff169050919050565b60006108e48261104d565b90508073ffffffffffffffffffffffffffffffffffffffff168373ffffffffffffffffffffffffffffffffffffffff1603610954576040517f08c379a000000000000000000000000000000000000000000000000000000000815260040161094b906136f9565b60405180910390fd5b8073ffffffffffffffffffffffffffffffffffffffff1661097361196d565b73ffffffffffffffffffffffffffffffffffffffff1614806109a257506109a18161099c61196d565b6117a1565b5b6109e1576040517f08c379a00000000000000000000000000000000000000000000000000000000081526004016109d89061378b565b60405180910390fd5b6109eb8383611975565b505050565b6000600f80549050905090565b3373ffffffffffffffffffffffffffffffffffffffff16610a1d8361104d565b73ffffffffffffffffffffffffffffffffffffffff1614610a73576040517f08c379a0000000000000000000000000000000000000000000000000000000008152600401610a6a906137f7565b60405180910390fd5b60001515600e600084815260200190815260200160002060020160149054906101000a900460ff16151514610add576040517f08c379a0000000000000000000000000000000000000000000000000000000008152600401610ad490613863565b60405180910390fd5b6008543414610b21576040517f08c379a0000000000000000000000000000000000000000000000000000000008152600401610b18906138f5565b60405180910390fd5b6001600e600084815260200190815260200160002060020160146101000a81548160ff02191690831515021790555080600e600084815260200190815260200160002060010181905550610b756009611a2e565b5050565b610b8a610b8461196d565b82611a44565b610bc9576040517f08c379a0000000000000000000000000000000000000000000000000000000008152600401610bc090613987565b60405180910390fd5b610bd4838383611ad9565b505050565b6000600e60008381526020019081526020016000206001015490506000610bff8361104d565b90508073ffffffffffffffffffffffffffffffffffffffff163373ffffffffffffffffffffffffffffffffffffffff1603610c6f576040517f08c379a0000000000000000000000000000000000000000000000000000000008152600401610c66906139f3565b60405180910390fd5b813414610cb1576040517f08c379a0000000000000000000000000000000000000000000000000000000008152600401610ca890613a5f565b60405180910390fd5b6000600e600085815260200190815260200160002060020160146101000a81548160ff021916908315150217905550610cea6009611d3f565b610cf5813385611ad9565b8073ffffffffffffffffffffffffffffffffffffffff166108fc349081150290604051600060405180830381858888f19350505050158015610d3b573d6000803e3d6000fd5b50505050565b6000610d4c836111b0565b8210610d8d576040517f08c379a0000000000000000000000000000000000000000000000000000000008152600401610d8490613acb565b60405180910390fd5b600b60008473ffffffffffffffffffffffffffffffffffffffff1673ffffffffffffffffffffffffffffffffffffffff168152602001908152602001600020600083815260200190815260200160002054905092915050565b60606000610df26109f0565b9050600080610e016009611d9b565b67ffffffffffffffff811115610e1a57610e196131ea565b5b604051908082528060200260200182016040528015610e5357816020015b610e40612cdb565b815260200190600190039081610e385790505b50905060005b83811015610f76576000610e6c82610fdc565b90506000600e60008381526020019081526020016000209050600115158160020160149054906101000a900460ff16151503610f61578060405180608001604052908160008201548152602001600182015481526020016002820160009054906101000a900473ffffffffffffffffffffffffffffffffffffffff1673ffffffffffffffffffffffffffffffffffffffff1673ffffffffffffffffffffffffffffffffffffffff1681526020016002820160149054906101000a900460ff161515151581525050848681518110610f4657610f45613aeb565b5b6020026020010181905250600185610f5e9190613b49565b94505b50508080610f6e90613b9f565b915050610e59565b5080935050505090565b610f9b83838360405180602001604052806000815250611506565b505050565b600060011515600d83604051610fb69190613c23565b908152602001604051809103902060009054906101000a900460ff161515149050919050565b6000610fe66109f0565b8210611027576040517f08c379a000000000000000000000000000000000000000000000000000000000815260040161101e90613acb565b60405180910390fd5b600f828154811061103b5761103a613aeb565b5b90600052602060002001549050919050565b6000806002600084815260200190815260200160002060009054906101000a900473ffffffffffffffffffffffffffffffffffffffff169050600073ffffffffffffffffffffffffffffffffffffffff168173ffffffffffffffffffffffffffffffffffffffff16036110f5576040517f08c379a00000000000000000000000000000000000000000000000000000000081526004016110ec90613c86565b60405180910390fd5b80915050919050565b611106612cdb565b600e600083815260200190815260200160002060405180608001604052908160008201548152602001600182015481526020016002820160009054906101000a900473ffffffffffffffffffffffffffffffffffffffff1673ffffffffffffffffffffffffffffffffffffffff1673ffffffffffffffffffffffffffffffffffffffff1681526020016002820160149054906101000a900460ff1615151515815250509050919050565b60008073ffffffffffffffffffffffffffffffffffffffff168273ffffffffffffffffffffffffffffffffffffffff1603611220576040517f08c379a000000000000000000000000000000000000000000000000000000000815260040161121790613d18565b60405180910390fd5b600360008373ffffffffffffffffffffffffffffffffffffffff1673ffffffffffffffffffffffffffffffffffffffff168152602001908152602001600020549050919050565b60606000611274336111b0565b905060008167ffffffffffffffff811115611292576112916131ea565b5b6040519080825280602002602001820160405280156112cb57816020015b6112b8612cdb565b8152602001906001900390816112b05790505b50905060005b828110156113c25760006112e53383610d41565b90506000600e600083815260200190815260200160002090508060405180608001604052908160008201548152602001600182015481526020016002820160009054906101000a900473ffffffffffffffffffffffffffffffffffffffff1673ffffffffffffffffffffffffffffffffffffffff1673ffffffffffffffffffffffffffffffffffffffff1681526020016002820160149054906101000a900460ff1615151515815250508484815181106113a2576113a1613aeb565b5b6020026020010181905250505080806113ba90613b9f565b9150506112d1565b50809250505090565b6113d3611da9565b6113dd6000611e27565b565b6113e7611da9565b6000811161142a576040517f08c379a000000000000000000000000000000000000000000000000000000000815260040161142190613d84565b60405180910390fd5b8060088190555050565b6000600760009054906101000a900473ffffffffffffffffffffffffffffffffffffffff16905090565b60606001805461146d90613656565b80601f016020809104026020016040519081016040528092919081815260200182805461149990613656565b80156114e65780601f106114bb576101008083540402835291602001916114e6565b820191906000526020600020905b8154815290600101906020018083116114c957829003601f168201915b5050505050905090565b6115026114fb61196d565b8383611eed565b5050565b61151761151161196d565b83611a44565b611556576040517f08c379a000000000000000000000000000000000000000000000000000000000815260040161154d90613987565b60405180910390fd5b61156284848484612059565b50505050565b600061157383610fa0565b156115b3576040517f08c379a00000000000000000000000000000000000000000000000000000000081526004016115aa90613df0565b60405180910390fd5b60085434146115f7576040517f08c379a00000000000000000000000000000000000000000000000000000000081526004016115ee906138f5565b60405180910390fd5b611601600a611a2e565b61160b6009611a2e565b6000611617600a611d9b565b905061162333826120b5565b61162d81856120d3565b6116378184612140565b6001600d856040516116499190613c23565b908152602001604051809103902060006101000a81548160ff0219169083151502179055508091505092915050565b60085481565b606061168982611922565b60006006600084815260200190815260200160002080546116a990613656565b80601f01602080910402602001604051908101604052809291908181526020018280546116d590613656565b80156117225780601f106116f757610100808354040283529160200191611722565b820191906000526020600020905b81548152906001019060200180831161170557829003601f168201915b505050505090506000611733612290565b9050600081510361174857819250505061178b565b60008251111561177d578082604051602001611765929190613e10565b6040516020818303038152906040529250505061178b565b611786846122a7565b925050505b919050565b600061179c6009611d9b565b905090565b6000600560008473ffffffffffffffffffffffffffffffffffffffff1673ffffffffffffffffffffffffffffffffffffffff16815260200190815260200160002060008373ffffffffffffffffffffffffffffffffffffffff1673ffffffffffffffffffffffffffffffffffffffff16815260200190815260200160002060009054906101000a900460ff16905092915050565b61183d611da9565b600073ffffffffffffffffffffffffffffffffffffffff168173ffffffffffffffffffffffffffffffffffffffff16036118ac576040517f08c379a00000000000000000000000000000000000000000000000000000000081526004016118a390613ea6565b60405180910390fd5b6118b581611e27565b50565b60007f01ffc9a7000000000000000000000000000000000000000000000000000000007bffffffffffffffffffffffffffffffffffffffffffffffffffffffff1916827bffffffffffffffffffffffffffffffffffffffffffffffffffffffff1916149050919050565b61192b8161230f565b61196a576040517f08c379a000000000000000000000000000000000000000000000000000000000815260040161196190613c86565b60405180910390fd5b50565b600033905090565b816004600083815260200190815260200160002060006101000a81548173ffffffffffffffffffffffffffffffffffffffff021916908373ffffffffffffffffffffffffffffffffffffffff160217905550808273ffffffffffffffffffffffffffffffffffffffff166119e88361104d565b73ffffffffffffffffffffffffffffffffffffffff167f8c5be1e5ebec7d5bd14f71427d1e84f3dd0314c0f7b2291e5b200ac8c7c3b92560405160405180910390a45050565b6001816000016000828254019250508190555050565b600080611a508361104d565b90508073ffffffffffffffffffffffffffffffffffffffff168473ffffffffffffffffffffffffffffffffffffffff161480611a925750611a9181856117a1565b5b80611ad057508373ffffffffffffffffffffffffffffffffffffffff16611ab884610893565b73ffffffffffffffffffffffffffffffffffffffff16145b91505092915050565b8273ffffffffffffffffffffffffffffffffffffffff16611af98261104d565b73ffffffffffffffffffffffffffffffffffffffff1614611b4f576040517f08c379a0000000000000000000000000000000000000000000000000000000008152600401611b4690613f38565b60405180910390fd5b600073ffffffffffffffffffffffffffffffffffffffff168273ffffffffffffffffffffffffffffffffffffffff1603611bbe576040517f08c379a0000000000000000000000000000000000000000000000000000000008152600401611bb590613fca565b60405180910390fd5b611bc983838361237b565b611bd4600082611975565b6001600360008573ffffffffffffffffffffffffffffffffffffffff1673ffffffffffffffffffffffffffffffffffffffff1681526020019081526020016000206000828254611c249190613fea565b925050819055506001600360008473ffffffffffffffffffffffffffffffffffffffff1673ffffffffffffffffffffffffffffffffffffffff1681526020019081526020016000206000828254611c7b9190613b49565b92505081905550816002600083815260200190815260200160002060006101000a81548173ffffffffffffffffffffffffffffffffffffffff021916908373ffffffffffffffffffffffffffffffffffffffff160217905550808273ffffffffffffffffffffffffffffffffffffffff168473ffffffffffffffffffffffffffffffffffffffff167fddf252ad1be2c89b69c2b068fc378daa952ba7f163c4a11628f55a4df523b3ef60405160405180910390a4611d3a83838361248d565b505050565b60008160000154905060008111611d8b576040517f08c379a0000000000000000000000000000000000000000000000000000000008152600401611d829061406a565b60405180910390fd5b6001810382600001819055505050565b600081600001549050919050565b611db161196d565b73ffffffffffffffffffffffffffffffffffffffff16611dcf611434565b73ffffffffffffffffffffffffffffffffffffffff1614611e25576040517f08c379a0000000000000000000000000000000000000000000000000000000008152600401611e1c906140d6565b60405180910390fd5b565b6000600760009054906101000a900473ffffffffffffffffffffffffffffffffffffffff16905081600760006101000a81548173ffffffffffffffffffffffffffffffffffffffff021916908373ffffffffffffffffffffffffffffffffffffffff1602179055508173ffffffffffffffffffffffffffffffffffffffff168173ffffffffffffffffffffffffffffffffffffffff167f8be0079c531659141344cd1fd0a4f28419497f9722a3daafe3b4186f6b6457e060405160405180910390a35050565b8173ffffffffffffffffffffffffffffffffffffffff168373ffffffffffffffffffffffffffffffffffffffff1603611f5b576040517f08c379a0000000000000000000000000000000000000000000000000000000008152600401611f5290614142565b60405180910390fd5b80600560008573ffffffffffffffffffffffffffffffffffffffff1673ffffffffffffffffffffffffffffffffffffffff16815260200190815260200160002060008473ffffffffffffffffffffffffffffffffffffffff1673ffffffffffffffffffffffffffffffffffffffff16815260200190815260200160002060006101000a81548160ff0219169083151502179055508173ffffffffffffffffffffffffffffffffffffffff168373ffffffffffffffffffffffffffffffffffffffff167f17307eab39ab6107e8899845ad3d59bd9653f200f220920489ca2b5937696c318360405161204c9190612dcf565b60405180910390a3505050565b612064848484611ad9565b61207084848484612492565b6120af576040517f08c379a00000000000000000000000000000000000000000000000000000000081526004016120a6906141d4565b60405180910390fd5b50505050565b6120cf828260405180602001604052806000815250612619565b5050565b6120dc8261230f565b61211b576040517f08c379a000000000000000000000000000000000000000000000000000000000815260040161211290614266565b60405180910390fd5b8060066000848152602001908152602001600020908161213b9190614432565b505050565b60008111612183576040517f08c379a000000000000000000000000000000000000000000000000000000000815260040161217a90613d84565b60405180910390fd5b60405180608001604052808381526020018281526020013373ffffffffffffffffffffffffffffffffffffffff16815260200160011515815250600e6000848152602001908152602001600020600082015181600001556020820151816001015560408201518160020160006101000a81548173ffffffffffffffffffffffffffffffffffffffff021916908373ffffffffffffffffffffffffffffffffffffffff16021790555060608201518160020160146101000a81548160ff0219169083151502179055509050507f470031062672bc0246e132c723a729c4676710ec663a29e86c88678032daddea82823360016040516122849493929190614504565b60405180910390a15050565b606060405180602001604052806000815250905090565b60606122b282611922565b60006122bc612290565b905060008151116122dc5760405180602001604052806000815250612307565b806122e684612674565b6040516020016122f7929190613e10565b6040516020818303038152906040525b915050919050565b60008073ffffffffffffffffffffffffffffffffffffffff166002600084815260200190815260200160002060009054906101000a900473ffffffffffffffffffffffffffffffffffffffff1673ffffffffffffffffffffffffffffffffffffffff1614159050919050565b6123868383836127d4565b600073ffffffffffffffffffffffffffffffffffffffff168373ffffffffffffffffffffffffffffffffffffffff16036123c8576123c3816127d9565b612407565b8173ffffffffffffffffffffffffffffffffffffffff168373ffffffffffffffffffffffffffffffffffffffff1614612406576124058382612822565b5b5b600073ffffffffffffffffffffffffffffffffffffffff168273ffffffffffffffffffffffffffffffffffffffff1603612449576124448161298f565b612488565b8273ffffffffffffffffffffffffffffffffffffffff168273ffffffffffffffffffffffffffffffffffffffff1614612487576124868282612a60565b5b5b505050565b505050565b60006124b38473ffffffffffffffffffffffffffffffffffffffff16612adf565b1561260c578373ffffffffffffffffffffffffffffffffffffffff1663150b7a026124dc61196d565b8786866040518563ffffffff1660e01b81526004016124fe949392919061459e565b6020604051808303816000875af192505050801561253a57506040513d601f19601f8201168201806040525081019061253791906145ff565b60015b6125bc573d806000811461256a576040519150601f19603f3d011682016040523d82523d6000602084013e61256f565b606091505b5060008151036125b4576040517f08c379a00000000000000000000000000000000000000000000000000000000081526004016125ab906141d4565b60405180910390fd5b805181602001fd5b63150b7a0260e01b7bffffffffffffffffffffffffffffffffffffffffffffffffffffffff1916817bffffffffffffffffffffffffffffffffffffffffffffffffffffffff191614915050612611565b600190505b949350505050565b6126238383612b02565b6126306000848484612492565b61266f576040517f08c379a0000000000000000000000000000000000000000000000000000000008152600401612666906141d4565b60405180910390fd5b505050565b6060600082036126bb576040518060400160405280600181526020017f300000000000000000000000000000000000000000000000000000000000000081525090506127cf565b600082905060005b600082146126ed5780806126d690613b9f565b915050600a826126e6919061465b565b91506126c3565b60008167ffffffffffffffff811115612709576127086131ea565b5b6040519080825280601f01601f19166020018201604052801561273b5781602001600182028036833780820191505090505b5090505b600085146127c8576001826127549190613fea565b9150600a85612763919061468c565b603061276f9190613b49565b60f81b81838151811061278557612784613aeb565b5b60200101907effffffffffffffffffffffffffffffffffffffffffffffffffffffffffffff1916908160001a905350600a856127c1919061465b565b945061273f565b8093505050505b919050565b505050565b600f805490506010600083815260200190815260200160002081905550600f81908060018154018082558091505060019003906000526020600020016000909190919091505550565b6000600161282f846111b0565b6128399190613fea565b90506000600c600084815260200190815260200160002054905081811461291e576000600b60008673ffffffffffffffffffffffffffffffffffffffff1673ffffffffffffffffffffffffffffffffffffffff168152602001908152602001600020600084815260200190815260200160002054905080600b60008773ffffffffffffffffffffffffffffffffffffffff1673ffffffffffffffffffffffffffffffffffffffff16815260200190815260200160002060008481526020019081526020016000208190555081600c600083815260200190815260200160002081905550505b600c600084815260200190815260200160002060009055600b60008573ffffffffffffffffffffffffffffffffffffffff1673ffffffffffffffffffffffffffffffffffffffff16815260200190815260200160002060008381526020019081526020016000206000905550505050565b60006001600f805490506129a39190613fea565b90506000601060008481526020019081526020016000205490506000600f83815481106129d3576129d2613aeb565b5b9060005260206000200154905080600f83815481106129f5576129f4613aeb565b5b90600052602060002001819055508160106000838152602001908152602001600020819055506010600085815260200190815260200160002060009055600f805480612a4457612a436146bd565b5b6001900381819060005260206000200160009055905550505050565b6000612a6b836111b0565b905081600b60008573ffffffffffffffffffffffffffffffffffffffff1673ffffffffffffffffffffffffffffffffffffffff16815260200190815260200160002060008381526020019081526020016000208190555080600c600084815260200190815260200160002081905550505050565b6000808273ffffffffffffffffffffffffffffffffffffffff163b119050919050565b600073ffffffffffffffffffffffffffffffffffffffff168273ffffffffffffffffffffffffffffffffffffffff1603612b71576040517f08c379a0000000000000000000000000000000000000000000000000000000008152600401612b6890614738565b60405180910390fd5b612b7a8161230f565b15612bba576040517f08c379a0000000000000000000000000000000000000000000000000000000008152600401612bb1906147a4565b60405180910390fd5b612bc66000838361237b565b6001600360008473ffffffffffffffffffffffffffffffffffffffff1673ffffffffffffffffffffffffffffffffffffffff1681526020019081526020016000206000828254612c169190613b49565b92505081905550816002600083815260200190815260200160002060006101000a81548173ffffffffffffffffffffffffffffffffffffffff021916908373ffffffffffffffffffffffffffffffffffffffff160217905550808273ffffffffffffffffffffffffffffffffffffffff16600073ffffffffffffffffffffffffffffffffffffffff167fddf252ad1be2c89b69c2b068fc378daa952ba7f163c4a11628f55a4df523b3ef60405160405180910390a4612cd76000838361248d565b5050565b60405180608001604052806000815260200160008152602001600073ffffffffffffffffffffffffffffffffffffffff1681526020016000151581525090565b6000604051905090565b600080fd5b600080fd5b60007fffffffff0000000000000000000000000000000000000000000000000000000082169050919050565b612d6481612d2f565b8114612d6f57600080fd5b50565b600081359050612d8181612d5b565b92915050565b600060208284031215612d9d57612d9c612d25565b5b6000612dab84828501612d72565b91505092915050565b60008115159050919050565b612dc981612db4565b82525050565b6000602082019050612de46000830184612dc0565b92915050565b600081519050919050565b600082825260208201905092915050565b60005b83811015612e24578082015181840152602081019050612e09565b83811115612e33576000848401525b50505050565b6000601f19601f8301169050919050565b6000612e5582612dea565b612e5f8185612df5565b9350612e6f818560208601612e06565b612e7881612e39565b840191505092915050565b60006020820190508181036000830152612e9d8184612e4a565b905092915050565b6000819050919050565b612eb881612ea5565b8114612ec357600080fd5b50565b600081359050612ed581612eaf565b92915050565b600060208284031215612ef157612ef0612d25565b5b6000612eff84828501612ec6565b91505092915050565b600073ffffffffffffffffffffffffffffffffffffffff82169050919050565b6000612f3382612f08565b9050919050565b612f4381612f28565b82525050565b6000602082019050612f5e6000830184612f3a565b92915050565b612f6d81612f28565b8114612f7857600080fd5b50565b600081359050612f8a81612f64565b92915050565b60008060408385031215612fa757612fa6612d25565b5b6000612fb585828601612f7b565b9250506020612fc685828601612ec6565b9150509250929050565b612fd981612ea5565b82525050565b6000602082019050612ff46000830184612fd0565b92915050565b6000806040838503121561301157613010612d25565b5b600061301f85828601612ec6565b925050602061303085828601612ec6565b9150509250929050565b60008060006060848603121561305357613052612d25565b5b600061306186828701612f7b565b935050602061307286828701612f7b565b925050604061308386828701612ec6565b9150509250925092565b600081519050919050565b600082825260208201905092915050565b6000819050602082019050919050565b6130c281612ea5565b82525050565b6130d181612f28565b82525050565b6130e081612db4565b82525050565b6080820160008201516130fc60008501826130b9565b50602082015161310f60208501826130b9565b50604082015161312260408501826130c8565b50606082015161313560608501826130d7565b50505050565b600061314783836130e6565b60808301905092915050565b6000602082019050919050565b600061316b8261308d565b6131758185613098565b9350613180836130a9565b8060005b838110156131b1578151613198888261313b565b97506131a383613153565b925050600181019050613184565b5085935050505092915050565b600060208201905081810360008301526131d88184613160565b905092915050565b600080fd5b600080fd5b7f4e487b7100000000000000000000000000000000000000000000000000000000600052604160045260246000fd5b61322282612e39565b810181811067ffffffffffffffff82111715613241576132406131ea565b5b80604052505050565b6000613254612d1b565b90506132608282613219565b919050565b600067ffffffffffffffff8211156132805761327f6131ea565b5b61328982612e39565b9050602081019050919050565b82818337600083830152505050565b60006132b86132b384613265565b61324a565b9050828152602081018484840111156132d4576132d36131e5565b5b6132df848285613296565b509392505050565b600082601f8301126132fc576132fb6131e0565b5b813561330c8482602086016132a5565b91505092915050565b60006020828403121561332b5761332a612d25565b5b600082013567ffffffffffffffff81111561334957613348612d2a565b5b613355848285016132e7565b91505092915050565b60808201600082015161337460008501826130b9565b50602082015161338760208501826130b9565b50604082015161339a60408501826130c8565b5060608201516133ad60608501826130d7565b50505050565b60006080820190506133c8600083018461335e565b92915050565b6000602082840312156133e4576133e3612d25565b5b60006133f284828501612f7b565b91505092915050565b61340481612db4565b811461340f57600080fd5b50565b600081359050613421816133fb565b92915050565b6000806040838503121561343e5761343d612d25565b5b600061344c85828601612f7b565b925050602061345d85828601613412565b9150509250929050565b600067ffffffffffffffff821115613482576134816131ea565b5b61348b82612e39565b9050602081019050919050565b60006134ab6134a684613467565b61324a565b9050828152602081018484840111156134c7576134c66131e5565b5b6134d2848285613296565b509392505050565b600082601f8301126134ef576134ee6131e0565b5b81356134ff848260208601613498565b91505092915050565b6000806000806080858703121561352257613521612d25565b5b600061353087828801612f7b565b945050602061354187828801612f7b565b935050604061355287828801612ec6565b925050606085013567ffffffffffffffff81111561357357613572612d2a565b5b61357f878288016134da565b91505092959194509250565b600080604083850312156135a2576135a1612d25565b5b600083013567ffffffffffffffff8111156135c0576135bf612d2a565b5b6135cc858286016132e7565b92505060206135dd85828601612ec6565b9150509250929050565b600080604083850312156135fe576135fd612d25565b5b600061360c85828601612f7b565b925050602061361d85828601612f7b565b9150509250929050565b7f4e487b7100000000000000000000000000000000000000000000000000000000600052602260045260246000fd5b6000600282049050600182168061366e57607f821691505b60208210810361368157613680613627565b5b50919050565b7f4552433732313a20617070726f76616c20746f2063757272656e74206f776e6560008201527f7200000000000000000000000000000000000000000000000000000000000000602082015250565b60006136e3602183612df5565b91506136ee82613687565b604082019050919050565b60006020820190508181036000830152613712816136d6565b9050919050565b7f4552433732313a20617070726f76652063616c6c6572206973206e6f7420746f60008201527f6b656e206f776e6572206e6f7220617070726f76656420666f7220616c6c0000602082015250565b6000613775603e83612df5565b915061378082613719565b604082019050919050565b600060208201905081810360008301526137a481613768565b9050919050565b7f596f7520617265206e6f74206f776e6572206f662074686973206e6674000000600082015250565b60006137e1601d83612df5565b91506137ec826137ab565b602082019050919050565b60006020820190508181036000830152613810816137d4565b9050919050565b7f4974656d20697320616c7265616479206f6e2073616c65000000000000000000600082015250565b600061384d601783612df5565b915061385882613817565b602082019050919050565b6000602082019050818103600083015261387c81613840565b9050919050565b7f5072696365206d75737420626520657175616c20746f206c697374696e67207060008201527f7269636500000000000000000000000000000000000000000000000000000000602082015250565b60006138df602483612df5565b91506138ea82613883565b604082019050919050565b6000602082019050818103600083015261390e816138d2565b9050919050565b7f4552433732313a2063616c6c6572206973206e6f7420746f6b656e206f776e6560008201527f72206e6f7220617070726f766564000000000000000000000000000000000000602082015250565b6000613971602e83612df5565b915061397c82613915565b604082019050919050565b600060208201905081810360008301526139a081613964565b9050919050565b7f596f7520616c7265616479206f776e2074686973204e46540000000000000000600082015250565b60006139dd601883612df5565b91506139e8826139a7565b602082019050919050565b60006020820190508181036000830152613a0c816139d0565b9050919050565b7f506c65617365207375626d6974207468652061736b696e672070726963650000600082015250565b6000613a49601e83612df5565b9150613a5482613a13565b602082019050919050565b60006020820190508181036000830152613a7881613a3c565b9050919050565b7f496e646578206f7574206f6620626f756e647300000000000000000000000000600082015250565b6000613ab5601383612df5565b9150613ac082613a7f565b602082019050919050565b60006020820190508181036000830152613ae481613aa8565b9050919050565b7f4e487b7100000000000000000000000000000000000000000000000000000000600052603260045260246000fd5b7f4e487b7100000000000000000000000000000000000000000000000000000000600052601160045260246000fd5b6000613b5482612ea5565b9150613b5f83612ea5565b9250827fffffffffffffffffffffffffffffffffffffffffffffffffffffffffffffffff03821115613b9457613b93613b1a565b5b828201905092915050565b6000613baa82612ea5565b91507fffffffffffffffffffffffffffffffffffffffffffffffffffffffffffffffff8203613bdc57613bdb613b1a565b5b600182019050919050565b600081905092915050565b6000613bfd82612dea565b613c078185613be7565b9350613c17818560208601612e06565b80840191505092915050565b6000613c2f8284613bf2565b915081905092915050565b7f4552433732313a20696e76616c696420746f6b656e2049440000000000000000600082015250565b6000613c70601883612df5565b9150613c7b82613c3a565b602082019050919050565b60006020820190508181036000830152613c9f81613c63565b9050919050565b7f4552433732313a2061646472657373207a65726f206973206e6f74206120766160008201527f6c6964206f776e65720000000000000000000000000000000000000000000000602082015250565b6000613d02602983612df5565b9150613d0d82613ca6565b604082019050919050565b60006020820190508181036000830152613d3181613cf5565b9050919050565b7f5072696365206d757374206265206174206c6561737420312077656900000000600082015250565b6000613d6e601c83612df5565b9150613d7982613d38565b602082019050919050565b60006020820190508181036000830152613d9d81613d61565b9050919050565b7f546f6b656e2055524920616c7265616479206578697374730000000000000000600082015250565b6000613dda601883612df5565b9150613de582613da4565b602082019050919050565b60006020820190508181036000830152613e0981613dcd565b9050919050565b6000613e1c8285613bf2565b9150613e288284613bf2565b91508190509392505050565b7f4f776e61626c653a206e6577206f776e657220697320746865207a65726f206160008201527f6464726573730000000000000000000000000000000000000000000000000000602082015250565b6000613e90602683612df5565b9150613e9b82613e34565b604082019050919050565b60006020820190508181036000830152613ebf81613e83565b9050919050565b7f4552433732313a207472616e736665722066726f6d20696e636f72726563742060008201527f6f776e6572000000000000000000000000000000000000000000000000000000602082015250565b6000613f22602583612df5565b9150613f2d82613ec6565b604082019050919050565b60006020820190508181036000830152613f5181613f15565b9050919050565b7f4552433732313a207472616e7366657220746f20746865207a65726f2061646460008201527f7265737300000000000000000000000000000000000000000000000000000000602082015250565b6000613fb4602483612df5565b9150613fbf82613f58565b604082019050919050565b60006020820190508181036000830152613fe381613fa7565b9050919050565b6000613ff582612ea5565b915061400083612ea5565b92508282101561401357614012613b1a565b5b828203905092915050565b7f436f756e7465723a2064656372656d656e74206f766572666c6f770000000000600082015250565b6000614054601b83612df5565b915061405f8261401e565b602082019050919050565b6000602082019050818103600083015261408381614047565b9050919050565b7f4f776e61626c653a2063616c6c6572206973206e6f7420746865206f776e6572600082015250565b60006140c0602083612df5565b91506140cb8261408a565b602082019050919050565b600060208201905081810360008301526140ef816140b3565b9050919050565b7f4552433732313a20617070726f766520746f2063616c6c657200000000000000600082015250565b600061412c601983612df5565b9150614137826140f6565b602082019050919050565b6000602082019050818103600083015261415b8161411f565b9050919050565b7f4552433732313a207472616e7366657220746f206e6f6e20455243373231526560008201527f63656976657220696d706c656d656e7465720000000000000000000000000000602082015250565b60006141be603283612df5565b91506141c982614162565b604082019050919050565b600060208201905081810360008301526141ed816141b1565b9050919050565b7f45524337323155524953746f726167653a2055524920736574206f66206e6f6e60008201527f6578697374656e7420746f6b656e000000000000000000000000000000000000602082015250565b6000614250602e83612df5565b915061425b826141f4565b604082019050919050565b6000602082019050818103600083015261427f81614243565b9050919050565b60008190508160005260206000209050919050565b60006020601f8301049050919050565b600082821b905092915050565b6000600883026142e87fffffffffffffffffffffffffffffffffffffffffffffffffffffffffffffffff826142ab565b6142f286836142ab565b95508019841693508086168417925050509392505050565b6000819050919050565b600061432f61432a61432584612ea5565b61430a565b612ea5565b9050919050565b6000819050919050565b61434983614314565b61435d61435582614336565b8484546142b8565b825550505050565b600090565b614372614365565b61437d818484614340565b505050565b5b818110156143a15761439660008261436a565b600181019050614383565b5050565b601f8211156143e6576143b781614286565b6143c08461429b565b810160208510156143cf578190505b6143e36143db8561429b565b830182614382565b50505b505050565b600082821c905092915050565b6000614409600019846008026143eb565b1980831691505092915050565b600061442283836143f8565b9150826002028217905092915050565b61443b82612dea565b67ffffffffffffffff811115614454576144536131ea565b5b61445e8254613656565b6144698282856143a5565b600060209050601f83116001811461449c576000841561448a578287015190505b6144948582614416565b8655506144fc565b601f1984166144aa86614286565b60005b828110156144d2578489015182556001820191506020850194506020810190506144ad565b868310156144ef57848901516144eb601f8916826143f8565b8355505b6001600288020188555050505b505050505050565b60006080820190506145196000830187612fd0565b6145266020830186612fd0565b6145336040830185612f3a565b6145406060830184612dc0565b95945050505050565b600081519050919050565b600082825260208201905092915050565b600061457082614549565b61457a8185614554565b935061458a818560208601612e06565b61459381612e39565b840191505092915050565b60006080820190506145b36000830187612f3a565b6145c06020830186612f3a565b6145cd6040830185612fd0565b81810360608301526145df8184614565565b905095945050505050565b6000815190506145f981612d5b565b92915050565b60006020828403121561461557614614612d25565b5b6000614623848285016145ea565b91505092915050565b7f4e487b7100000000000000000000000000000000000000000000000000000000600052601260045260246000fd5b600061466682612ea5565b915061467183612ea5565b9250826146815761468061462c565b5b828204905092915050565b600061469782612ea5565b91506146a283612ea5565b9250826146b2576146b161462c565b5b828206905092915050565b7f4e487b7100000000000000000000000000000000000000000000000000000000600052603160045260246000fd5b7f4552433732313a206d696e7420746f20746865207a65726f2061646472657373600082015250565b6000614722602083612df5565b915061472d826146ec565b602082019050919050565b6000602082019050818103600083015261475181614715565b9050919050565b7f4552433732313a20746f6b656e20616c7265616479206d696e74656400000000600082015250565b600061478e601c83612df5565b915061479982614758565b602082019050919050565b600060208201905081810360008301526147bd81614781565b905091905056fea26469706673582212204ff669b7a7ea33600e7fc5b024410ad2f4d06fcaef6423d149ac445b5a45016b64736f6c634300080f0033",
  "immutableReferences": {},
  "source": "// SPDX-License-Identifier: MIT\npragma solidity >=0.4.22 <0.9.0;\n\nimport \"@openzeppelin/contracts/token/ERC721/extensions/ERC721URIStorage.sol\";\nimport \"@openzeppelin/contracts/utils/Counters.sol\";\nimport \"@openzeppelin/contracts/access/Ownable.sol\";\n\n\ncontract NftMarket is ERC721URIStorage, Ownable {\n  using Counters for Counters.Counter;\n\n  struct NftItem {\n    uint tokenId;\n    uint price;\n    address creator;\n    bool isListed;\n  }\n\n  uint public listingPrice = 0.025 ether;\n\n  Counters.Counter private _listedItems;\n  Counters.Counter private _tokenIds;\n\n  mapping(address => mapping(uint => uint)) private _ownedTokens;\n  mapping(uint => uint) private _idToOwnedIndex;\n\n  mapping(string => bool) private _usedTokenURIs;\n  mapping(uint => NftItem) private _idToNftItem;\n\n  uint256[] private _allNfts;\n  mapping(uint => uint) private _idToNftIndex;\n\n  event NftItemCreated (\n    uint tokenId,\n    uint price,\n    address creator,\n    bool isListed\n  );\n\n  constructor() ERC721(\"CreaturesNFT\", \"CNFT\") {}\n\n  function setListingPrice(uint newPrice) external onlyOwner {\n    require(newPrice > 0, \"Price must be at least 1 wei\");\n    listingPrice = newPrice;\n  }\n\n  function getNftItem(uint tokenId) public view returns (NftItem memory) {\n    return _idToNftItem[tokenId];\n  }\n\n  function listedItemsCount() public view returns (uint) {\n    return _listedItems.current();\n  }\n\n  function tokenURIExists(string memory tokenURI) public view returns (bool) {\n    return _usedTokenURIs[tokenURI] == true;\n  }\n\n  function totalSupply() public view returns (uint) {\n    return _allNfts.length;\n  }\n\n  function tokenByIndex(uint index) public view returns (uint) {\n    require(index < totalSupply(), \"Index out of bounds\");\n    return _allNfts[index];\n  }\n\n  function tokenOfOwnerByIndex(address owner, uint index) public view returns (uint) {\n    require(index < ERC721.balanceOf(owner), \"Index out of bounds\");\n    return _ownedTokens[owner][index];\n  }\n\n  function getAllNftsOnSale() public view returns (NftItem[] memory) {\n    uint allItemsCounts = totalSupply();\n    uint currentIndex = 0;\n    NftItem[] memory items = new NftItem[](_listedItems.current());\n\n    for (uint i = 0; i < allItemsCounts; i++) {\n      uint tokenId = tokenByIndex(i);\n      NftItem storage item = _idToNftItem[tokenId];\n\n      if (item.isListed == true) {\n        items[currentIndex] = item;\n        currentIndex += 1;\n      }\n    }\n\n    return items;\n  }\n\n  function getOwnedNfts() public view returns (NftItem[] memory) {\n    uint ownedItemsCount = ERC721.balanceOf(msg.sender);\n    NftItem[] memory items = new NftItem[](ownedItemsCount);\n\n    for (uint i = 0; i < ownedItemsCount; i++) {\n      uint tokenId = tokenOfOwnerByIndex(msg.sender, i);\n      NftItem storage item = _idToNftItem[tokenId];\n      items[i] = item;\n    }\n\n    return items;\n  }\n\n  function mintToken(string memory tokenURI, uint price) public payable returns (uint) {\n    require(!tokenURIExists(tokenURI), \"Token URI already exists\");\n    require(msg.value == listingPrice, \"Price must be equal to listing price\");\n\n    _tokenIds.increment();\n    _listedItems.increment();\n\n    uint newTokenId = _tokenIds.current();\n\n    _safeMint(msg.sender, newTokenId);\n    _setTokenURI(newTokenId, tokenURI);\n    _createNftItem(newTokenId, price);\n    _usedTokenURIs[tokenURI] = true;\n\n    return newTokenId;\n  }\n\n  function placeNftOnSale(uint tokenId, uint newPrice) public payable {\n    require(ERC721.ownerOf(tokenId) == msg.sender, \"You are not owner of this nft\");\n    require(_idToNftItem[tokenId].isListed == false, \"Item is already on sale\");\n    require(msg.value == listingPrice, \"Price must be equal to listing price\");\n\n    _idToNftItem[tokenId].isListed = true;\n    _idToNftItem[tokenId].price = newPrice;\n    _listedItems.increment();\n  }\n\n  function buyNft(\n    uint tokenId\n  ) public payable {\n    uint price = _idToNftItem[tokenId].price;\n    address owner = ERC721.ownerOf(tokenId);\n\n    require(msg.sender != owner, \"You already own this NFT\");\n    require(msg.value == price, \"Please submit the asking price\");\n\n    _idToNftItem[tokenId].isListed = false;\n    _listedItems.decrement();\n\n    _transfer(owner, msg.sender, tokenId);\n    payable(owner).transfer(msg.value);\n  }\n\n  function _createNftItem(\n    uint tokenId,\n    uint price\n  ) private {\n    require(price > 0, \"Price must be at least 1 wei\");\n\n    _idToNftItem[tokenId] = NftItem(\n      tokenId,\n      price,\n      msg.sender,\n      true\n    );\n\n    emit NftItemCreated(tokenId, price, msg.sender, true);\n  }\n\n  function _beforeTokenTransfer(\n    address from,\n    address to,\n    uint tokenId\n  ) internal virtual override {\n    super._beforeTokenTransfer(from, to, tokenId);\n\n    if (from == address(0)) {\n      _addTokenToAllTokensEnumeration(tokenId);\n    } else if (from != to) {\n      _removeTokenFromOwnerEnumeration(from, tokenId);\n    }\n\n    if (to == address(0)) {\n      _removeTokenFromAllTokensEnumeration(tokenId);\n    } else if (to != from) {\n      _addTokenToOwnerEnumeration(to, tokenId);\n    }\n  }\n\n  function _addTokenToAllTokensEnumeration(uint tokenId) private {\n    _idToNftIndex[tokenId] = _allNfts.length;\n    _allNfts.push(tokenId);\n  }\n\n  function _addTokenToOwnerEnumeration(address to, uint tokenId) private {\n    uint length = ERC721.balanceOf(to);\n    _ownedTokens[to][length] = tokenId;\n    _idToOwnedIndex[tokenId] = length;\n  }\n\n  function _removeTokenFromOwnerEnumeration(address from, uint tokenId) private {\n    uint lastTokenIndex = ERC721.balanceOf(from) - 1;\n    uint tokenIndex = _idToOwnedIndex[tokenId];\n\n    if (tokenIndex != lastTokenIndex) {\n      uint lastTokenId = _ownedTokens[from][lastTokenIndex];\n\n      _ownedTokens[from][tokenIndex] = lastTokenId;\n      _idToOwnedIndex[lastTokenId] = tokenIndex;\n    }\n\n    delete _idToOwnedIndex[tokenId];\n    delete _ownedTokens[from][lastTokenIndex];\n  }\n\n  function _removeTokenFromAllTokensEnumeration(uint tokenId) private {\n    uint lastTokenIndex = _allNfts.length - 1;\n    uint tokenIndex = _idToNftIndex[tokenId];\n    uint lastTokenId = _allNfts[lastTokenIndex];\n\n    _allNfts[tokenIndex] = lastTokenId;\n    _idToNftIndex[lastTokenId] = tokenIndex;\n\n    delete _idToNftIndex[tokenId];\n    _allNfts.pop();\n  }\n}\n",
  "sourcePath": "/Users/eduardo/dev/web3/nft-marketplace/contracts/NftMarket.sol",
  "compiler": {
    "name": "solc",
    "version": "0.8.15+commit.e14f2714.Emscripten.clang"
  },
  "schemaVersion": "3.4.8",
  "updatedAt": "2022-08-01T01:16:36.873Z",
  "networkType": "ethereum",
  "devdoc": {
    "kind": "dev",
    "methods": {
      "approve(address,uint256)": {
        "details": "See {IERC721-approve}."
      },
      "balanceOf(address)": {
        "details": "See {IERC721-balanceOf}."
      },
      "getApproved(uint256)": {
        "details": "See {IERC721-getApproved}."
      },
      "isApprovedForAll(address,address)": {
        "details": "See {IERC721-isApprovedForAll}."
      },
      "name()": {
        "details": "See {IERC721Metadata-name}."
      },
      "owner()": {
        "details": "Returns the address of the current owner."
      },
      "ownerOf(uint256)": {
        "details": "See {IERC721-ownerOf}."
      },
      "renounceOwnership()": {
        "details": "Leaves the contract without owner. It will not be possible to call `onlyOwner` functions anymore. Can only be called by the current owner. NOTE: Renouncing ownership will leave the contract without an owner, thereby removing any functionality that is only available to the owner."
      },
      "safeTransferFrom(address,address,uint256)": {
        "details": "See {IERC721-safeTransferFrom}."
      },
      "safeTransferFrom(address,address,uint256,bytes)": {
        "details": "See {IERC721-safeTransferFrom}."
      },
      "setApprovalForAll(address,bool)": {
        "details": "See {IERC721-setApprovalForAll}."
      },
      "supportsInterface(bytes4)": {
        "details": "See {IERC165-supportsInterface}."
      },
      "symbol()": {
        "details": "See {IERC721Metadata-symbol}."
      },
      "tokenURI(uint256)": {
        "details": "See {IERC721Metadata-tokenURI}."
      },
      "transferFrom(address,address,uint256)": {
        "details": "See {IERC721-transferFrom}."
      },
      "transferOwnership(address)": {
        "details": "Transfers ownership of the contract to a new account (`newOwner`). Can only be called by the current owner."
      }
    },
    "version": 1
  },
  "userdoc": {
    "kind": "user",
    "methods": {},
    "version": 1
  }
}